{
  "contractName": "Demo",
  "abi": [
    {
      "constant": false,
      "inputs": [
        {
          "name": "i",
          "type": "uint256"
        }
      ],
      "name": "mix",
      "outputs": [
        {
          "name": "",
          "type": "uint256"
        }
      ],
      "payable": false,
      "stateMutability": "nonpayable",
      "type": "function"
    }
  ],
  "bytecode": "0x608060405234801561001057600080fd5b5060bd8061001f6000396000f300608060405260043610603f576000357c0100000000000000000000000000000000000000000000000000000000900463ffffffff16806383d1f1aa146044575b600080fd5b348015604f57600080fd5b50606c600480360381019080803590602001909291905050506082565b6040518082815260200191505060405180910390f35b600060026000540290509190505600a165627a7a72305820b32c0f5f52223f2633455da78525fc52ee6314d50d0a3e6deb470a561970e7600029",
  "source": "pragma solidity ^0.4.24;\n\ncontract Demo {\n  uint num;\n\n  function mix(uint i) public returns (uint) {\n    return num * 2; \n  }\n\n}\n",
  "sourcePath": "/home/hw/testfour/demo/contracts/Demo.sol",
  "compiler": {
    "name": "solc",
    "version": "0.4.24+commit.e67f0147.Emscripten.clang"
  },
  "schemaVersion": "2.0.1",
  "updatedAt": "2018-07-12T05:36:20.301Z"
}