{
  "contractName": "Demo",
  "abi": [
    {
      "constant": false,
      "inputs": [
        {
          "name": "i",
          "type": "uint256"
        }
      ],
      "name": "mix",
      "outputs": [
        {
          "name": "",
          "type": "uint256"
        }
      ],
      "payable": false,
      "stateMutability": "nonpayable",
      "type": "function"
    }
  ],
  "bytecode": "0x608060405234801561001057600080fd5b5060bb8061001f6000396000f300608060405260043610603f576000357c0100000000000000000000000000000000000000000000000000000000900463ffffffff16806383d1f1aa146044575b600080fd5b348015604f57600080fd5b50606c600480360381019080803590602001909291905050506082565b6040518082815260200191505060405180910390f35b60006002820290509190505600a165627a7a7230582023acc0795153867223e3eb69d87657f120b59cb58b26acfcd2fec87bcc6db2300029",
  "source": "pragma solidity ^0.4.24;\n\ncontract Demo {\n  uint num;\n\n  function mix(uint i) public returns (uint) {\n    return i * 2;\n  }\n\n}\n",
  "sourcePath": "/home/hw/Information-Exchange-DAPP/demo/contracts/Demo.sol",
  "compiler": {
    "name": "solc",
    "version": "0.4.24+commit.e67f0147.Emscripten.clang"
  },
  "schemaVersion": "2.0.1",
  "updatedAt": "2018-11-08T08:30:32.288Z"
}