{
  "contractName": "topic",
  "abi": [
    {
      "constant": false,
      "inputs": [
        {
          "name": "_title",
          "type": "string"
        }
      ],
      "name": "topicExist",
      "outputs": [
        {
          "name": "",
          "type": "bool"
        }
      ],
      "payable": false,
      "stateMutability": "nonpayable",
      "type": "function"
    },
    {
      "constant": false,
      "inputs": [
        {
          "name": "_title",
          "type": "string"
        }
      ],
      "name": "inquireTopicIndex",
      "outputs": [
        {
          "name": "",
          "type": "uint256"
        }
      ],
      "payable": false,
      "stateMutability": "nonpayable",
      "type": "function"
    },
    {
      "constant": false,
      "inputs": [
        {
          "name": "_title",
          "type": "string"
        },
        {
          "name": "_topicMessege",
          "type": "string"
        },
        {
          "name": "_pages",
          "type": "string"
        }
      ],
      "name": "createTopic",
      "outputs": [
        {
          "name": "",
          "type": "uint256"
        }
      ],
      "payable": false,
      "stateMutability": "nonpayable",
      "type": "function"
    },
    {
      "constant": false,
      "inputs": [
        {
          "name": "_title",
          "type": "string"
        },
        {
          "name": "_topicMessege",
          "type": "string"
        }
      ],
      "name": "changeTopic",
      "outputs": [
        {
          "name": "",
          "type": "uint256"
        }
      ],
      "payable": false,
      "stateMutability": "nonpayable",
      "type": "function"
    },
    {
      "constant": false,
      "inputs": [
        {
          "name": "_messege",
          "type": "string"
        },
        {
          "name": "_title",
          "type": "string"
        }
      ],
      "name": "createMessege",
      "outputs": [
        {
          "name": "",
          "type": "uint256"
        }
      ],
      "payable": false,
      "stateMutability": "nonpayable",
      "type": "function"
    },
    {
      "constant": false,
      "inputs": [
        {
          "name": "_title",
          "type": "string"
        },
        {
          "name": "_index",
          "type": "uint256"
        },
        {
          "name": "_messege",
          "type": "string"
        }
      ],
      "name": "changeMessege",
      "outputs": [
        {
          "name": "",
          "type": "uint256"
        }
      ],
      "payable": false,
      "stateMutability": "nonpayable",
      "type": "function"
    }
  ],
  "bytecode": "0x608060405234801561001057600080fd5b506110e1806100206000396000f300608060405260043610610078576000357c0100000000000000000000000000000000000000000000000000000000900463ffffffff1680632e8882e91461007d5780632facb64f146101865780633a3d2aee1461024957806344d0af7a146102c65780635e8227ac14610393578063dd54ee6214610456575b600080fd5b34801561008957600080fd5b50610170600480360381019080803590602001908201803590602001908080601f0160208091040260200160405190810160405280939291908181526020018383808284378201915050505050509192919290803590602001908201803590602001908080601f0160208091040260200160405190810160405280939291908181526020018383808284378201915050505050509192919290803590602001908201803590602001908080601f01602080910402602001604051908101604052809392919081815260200183838082843782019150505050505091929192905050506104d7565b6040518082815260200191505060405180910390f35b34801561019257600080fd5b50610233600480360381019080803590602001908201803590602001908080601f0160208091040260200160405190810160405280939291908181526020018383808284378201915050505050509192919290803590602001908201803590602001908080601f01602080910402602001604051908101604052809392919081815260200183838082843782019150505050505091929192905050506107cd565b6040518082815260200191505060405180910390f35b34801561025557600080fd5b506102b0600480360381019080803590602001908201803590602001908080601f016020809104026020016040519081016040528093929190818152602001838380828437820191505050505050919291929050505061099d565b6040518082815260200191505060405180910390f35b3480156102d257600080fd5b5061037d600480360381019080803590602001908201803590602001908080601f016020809104026020016040519081016040528093929190818152602001838380828437820191505050505050919291929080359060200190929190803590602001908201803590602001908080601f0160208091040260200160405190810160405280939291908181526020018383808284378201915050505050509192919290505050610a15565b6040518082815260200191505060405180910390f35b34801561039f57600080fd5b50610440600480360381019080803590602001908201803590602001908080601f0160208091040260200160405190810160405280939291908181526020018383808284378201915050505050509192919290803590602001908201803590602001908080601f0160208091040260200160405190810160405280939291908181526020018383808284378201915050505050509192919290505050610bec565b6040518082815260200191505060405180910390f35b34801561046257600080fd5b506104bd600480360381019080803590602001908201803590602001908080601f0160208091040260200160405190810160405280939291908181526020018383808284378201915050505050509192919290505050610e7b565b604051808215151515815260200191505060405180910390f35b60006104e284610e7b565b1515156104ee57600080fd5b600084908060018154018082558091505090600182039060005260206000200160009091929091909150908051906020019061052b929190610f90565b505060408051908101604052808581526020016000805490508152506003856040518082805190602001908083835b60208310151561057f578051825260208201915060208101905060208303925061055a565b6001836020036101000a038019825116818451168082178552505050505050905001915050908152602001604051809103902060008201518160000190805190602001906105ce929190611010565b506020820151816001015590505060c0604051908101604052808581526020013373ffffffffffffffffffffffffffffffffffffffff1681526020018381526020014281526020016001815260200160008054905081525060026000808054905081526020019081526020016000206000820151816000019080519060200190610659929190611010565b5060208201518160020160006101000a81548173ffffffffffffffffffffffffffffffffffffffff021916908373ffffffffffffffffffffffffffffffffffffffff16021790555060408201518160030190805190602001906106bd929190611010565b50606082015181600401556080820151816005015560a082015181600601559050506080604051908101604052808481526020013373ffffffffffffffffffffffffffffffffffffffff168152602001428152602001600081525060026000808054905081526020019081526020016000206001016000808152602001908152602001600020600082015181600001908051906020019061075f929190611010565b5060208201518160010160006101000a81548173ffffffffffffffffffffffffffffffffffffffff021916908373ffffffffffffffffffffffffffffffffffffffff160217905550604082015181600201556060820151816003015590505060008054905090509392505050565b600080600160009054906101000a900473ffffffffffffffffffffffffffffffffffffffff1673ffffffffffffffffffffffffffffffffffffffff166370a456cc336040518263ffffffff167c0100000000000000000000000000000000000000000000000000000000028152600401808273ffffffffffffffffffffffffffffffffffffffff1673ffffffffffffffffffffffffffffffffffffffff168152602001915050602060405180830381600087803b15801561088d57600080fd5b505af11580156108a1573d6000803e3d6000fd5b505050506040513d60208110156108b757600080fd5b810190808051906020019092919050505015156108d357600080fd5b6108dc84610e7b565b15156108e757600080fd5b600260006108f48661099d565b815260200190815260200160002090508060020160009054906101000a900473ffffffffffffffffffffffffffffffffffffffff1673ffffffffffffffffffffffffffffffffffffffff163373ffffffffffffffffffffffffffffffffffffffff1614151561096257600080fd5b82816001016000808152602001908152602001600020600001908051906020019061098e929190610f90565b50806006015491505092915050565b60006003826040518082805190602001908083835b6020831015156109d757805182526020820191506020810190506020830392506109b2565b6001836020036101000a0380198251168184511680821785525050505050509050019150509081526020016040518091039020600101549050919050565b6000806000600160009054906101000a900473ffffffffffffffffffffffffffffffffffffffff1673ffffffffffffffffffffffffffffffffffffffff166370a456cc336040518263ffffffff167c0100000000000000000000000000000000000000000000000000000000028152600401808273ffffffffffffffffffffffffffffffffffffffff1673ffffffffffffffffffffffffffffffffffffffff168152602001915050602060405180830381600087803b158015610ad757600080fd5b505af1158015610aeb573d6000803e3d6000fd5b505050506040513d6020811015610b0157600080fd5b81019080805190602001909291905050501515610b1d57600080fd5b610b2686610e7b565b1515610b3157600080fd5b60026000610b3e8861099d565b8152602001908152602001600020915081600101600086815260200190815260200160002090508060010160009054906101000a900473ffffffffffffffffffffffffffffffffffffffff1673ffffffffffffffffffffffffffffffffffffffff163373ffffffffffffffffffffffffffffffffffffffff16141515610bc357600080fd5b83816000019080519060200190610bdb929190610f90565b508060030154925050509392505050565b600080600160009054906101000a900473ffffffffffffffffffffffffffffffffffffffff1673ffffffffffffffffffffffffffffffffffffffff166370a456cc336040518263ffffffff167c0100000000000000000000000000000000000000000000000000000000028152600401808273ffffffffffffffffffffffffffffffffffffffff1673ffffffffffffffffffffffffffffffffffffffff168152602001915050602060405180830381600087803b158015610cac57600080fd5b505af1158015610cc0573d6000803e3d6000fd5b505050506040513d6020811015610cd657600080fd5b81019080805190602001909291905050501515610cf257600080fd5b610cfb83610e7b565b1515610d0657600080fd5b600260006003856040518082805190602001908083835b602083101515610d425780518252602082019150602081019050602083039250610d1d565b6001836020036101000a038019825116818451168082178552505050505050905001915050908152602001604051809103902060010154815260200190815260200160002090506080604051908101604052808581526020013373ffffffffffffffffffffffffffffffffffffffff1681526020014281526020018260050154815250816001016000836005015481526020019081526020016000206000820151816000019080519060200190610dfa929190611010565b5060208201518160010160006101000a81548173ffffffffffffffffffffffffffffffffffffffff021916908373ffffffffffffffffffffffffffffffffffffffff16021790555060408201518160020155606082015181600301559050508060050160008154809291906001019190505550806006015491505092915050565b6000806000805490501415610e935760009050610f8b565b816040518082805190602001908083835b602083101515610ec95780518252602082019150602081019050602083039250610ea4565b6001836020036101000a0380198251168184511680821785525050505050509050019150506040518091039020600019166000610f058461099d565b815481101515610f1157fe5b906000526020600020016040518082805460018160011615610100020316600290048015610f765780601f10610f54576101008083540402835291820191610f76565b820191906000526020600020905b815481529060010190602001808311610f62575b50509150506040518091039020600019161490505b919050565b828054600181600116156101000203166002900490600052602060002090601f016020900481019282601f10610fd157805160ff1916838001178555610fff565b82800160010185558215610fff579182015b82811115610ffe578251825591602001919060010190610fe3565b5b50905061100c9190611090565b5090565b828054600181600116156101000203166002900490600052602060002090601f016020900481019282601f1061105157805160ff191683800117855561107f565b8280016001018555821561107f579182015b8281111561107e578251825591602001919060010190611063565b5b50905061108c9190611090565b5090565b6110b291905b808211156110ae576000816000905550600101611096565b5090565b905600a165627a7a723058209144f83599b8feb82304c127f50c78784d026f1185c03b416a36a328b1ebe1680029",
  "source": "pragma solidity ^0.4.24;\n\nimport \"../contracts/user.sol\";\nimport \"../contracts/pages.sol\";\n\ncontract topic {\n\n    struct topicStruct {                                      //话题结构\n      string title;\n      mapping (uint => messegeStruct) messegeStructMap;    //第一条消息为话题的介绍\n      address user;\n      string pages;                                        //用于存储话题所属的分类\n      uint time;\n      uint messegeSize;\n      uint index;\n    }\n\n    struct topicListStruct {                              //话题辅助结构\n        string title;\n        uint index;\n    }\n\n    struct messegeStruct {                               //话题下的信息结构\n      string messege;\n      address user;\n      uint time;\n      uint index;\n    }\n\n\n    string[] titles;               //存储所有标题\n    user u;\n\n    mapping (uint => topicStruct) topicStructMap;   //话题序号对应话题\n    mapping (string => topicListStruct) topicListStructMap;    //话题标题对应话题序号\n\n    function topicExist(string _title) public returns (bool) {                     //检验话题是否存在\n        if (titles.length == 0)    return false;\n        return (keccak256(titles[inquireTopicIndex(_title)]) == keccak256(_title));\n    }\n\n    function inquireTopicIndex(string _title) public returns (uint) {                  //通过话题标题来查找话题index\n        return topicListStructMap[_title].index;\n    }\n\n    function createTopic(string _title, string _topicMessege, string _pages) public returns (uint) { //创建话题,返回index\n      require(!topicExist(_title));                               //检验话题是否存在\n      titles.push(_title);                           \n\n      topicListStructMap[_title] = topicListStruct({\n                                title : _title,\n                                index : titles.length\n      });\n\n      topicStructMap[titles.length] = topicStruct({\n                                  title : _title,\n                                  user : msg.sender,\n                                  pages: _pages,\n                                  time : now,\n                                  messegeSize : 1,\n                                  index : titles.length\n        });\n      topicStructMap[titles.length].messegeStructMap[0] = messegeStruct(_topicMessege,msg.sender,now,0);\n      return titles.length;\n    }\n\n    function changeTopic(string _title,string _topicMessege)public returns (uint) { //修改话题信息，返回index(仅限题主修改)\n        require(u.userAddressExist(msg.sender));                                //检验用户是否存在\n        require(topicExist(_title));                                            //检验话题是否存在\n        \n        topicStruct thisTopic = topicStructMap[inquireTopicIndex(_title)];\n\n        require(msg.sender == thisTopic.user);                //检验是否是题主\n        thisTopic.messegeStructMap[0].messege=_topicMessege;\n\n        return thisTopic.index;\n        \n    }\n/*\n    function showTopicIndex() public returns (uint[]){                //返回用户的所有话题的index\n        require(user.userAddressExist(msg.sender));                      //检验用户是否存在\n        //\n    }\n\n    function inquireTopicT(string _title) public returns (string, address, uint, uint, uint){          //通过标题查找话题\n\n    }\n\n    function inquireTopicI(uint _index) public returns (string, address, uint, uint, uint) {           //通过index查找话题\n        \n    }\n\n    function deleteTopic(string _title) public returns (bool){                                    //通过标题删除话题(仅限题主)\n\n    }\n\n*/\n    function createMessege(string _messege, string _title) public returns(uint){ //在话题下追加消息，返回index\n      require(u.userAddressExist(msg.sender));                                           //检验用户是否存在\n      require(topicExist(_title));                                                       //检验话题是否存在\n\n      topicStruct  thisTopic = topicStructMap[topicListStructMap[_title].index];\n      thisTopic.messegeStructMap[thisTopic.messegeSize] = messegeStruct(_messege, msg.sender, now,thisTopic.messegeSize);\n      thisTopic.messegeSize++;\n      return thisTopic.index;\n    }\n/*\n    function showMessegeIndex() public returns (uint[]){                      //返回用户的所有消息的index\n        require(user.userAddressExist(msg.sender));                                      //检验用户是否存在\n        //uint[] indexs = new uint[]\n    }\n*/\n    function changeMessege(string _title, uint _index, string _messege)public returns (uint){ //修改话题下的信息，返回index(仅限答主修改)\n        require(u.userAddressExist(msg.sender));                                     //检验用户是否存在\n        require(topicExist(_title));                                                 //检验话题是否存在\n\n        topicStruct thisTopic = topicStructMap[inquireTopicIndex(_title)];\n        messegeStruct thisMessege = thisTopic.messegeStructMap[_index];\n        require(msg.sender == thisMessege.user);                                    //检验是否是答主\n        thisMessege.messege = _messege;\n\n        return thisMessege.index;\n    }\n\n    //查找话题下的信息\n\n    //删除话题下的信息（\n}\n",
  "sourcePath": "/home/hw/Information-Exchange-DAPP/demo/contracts/topic.sol",
  "compiler": {
    "name": "solc",
    "version": "0.4.24+commit.e67f0147.Emscripten.clang"
  },
  "schemaVersion": "2.0.1",
  "updatedAt": "2018-11-08T08:30:32.291Z"
}