{
  "contractName": "topic",
  "abi": [
    {
      "constant": false,
      "inputs": [
        {
          "name": "_title",
          "type": "string"
        },
        {
          "name": "_topicMessege",
          "type": "string"
        }
      ],
      "name": "createTopic",
      "outputs": [
        {
          "name": "",
          "type": "uint256"
        }
      ],
      "payable": false,
      "stateMutability": "nonpayable",
      "type": "function"
    },
    {
      "constant": false,
      "inputs": [
        {
          "name": "_messege",
          "type": "string"
        },
        {
          "name": "_title",
          "type": "string"
        }
      ],
      "name": "createMessege",
      "outputs": [
        {
          "name": "",
          "type": "uint256"
        }
      ],
      "payable": false,
      "stateMutability": "nonpayable",
      "type": "function"
    }
  ],
  "bytecode": "0x608060405234801561001057600080fd5b50610845806100206000396000f30060806040526004361061004c576000357c0100000000000000000000000000000000000000000000000000000000900463ffffffff1680630743c33a146100515780635e8227ac14610114575b600080fd5b34801561005d57600080fd5b506100fe600480360381019080803590602001908201803590602001908080601f0160208091040260200160405190810160405280939291908181526020018383808284378201915050505050509192919290803590602001908201803590602001908080601f01602080910402602001604051908101604052809392919081815260200183838082843782019150505050505091929192905050506101d7565b6040518082815260200191505060405180910390f35b34801561012057600080fd5b506101c1600480360381019080803590602001908201803590602001908080601f0160208091040260200160405190810160405280939291908181526020018383808284378201915050505050509192919290803590602001908201803590602001908080601f016020809104026020016040519081016040528093929190818152602001838380828437820191505050505050919291929050505061048c565b6040518082815260200191505060405180910390f35b6000808390806001815401808255809150509060018203906000526020600020016000909192909190915090805190602001906102159291906106f4565b505060a0604051908101604052808481526020013373ffffffffffffffffffffffffffffffffffffffff168152602001428152602001600181526020016000805490508152506002846040518082805190602001908083835b602083101515610293578051825260208201915060208101905060208303925061026e565b6001836020036101000a038019825116818451168082178552505050505050905001915050908152602001604051809103902060008201518160000190805190602001906102e2929190610774565b5060208201518160020160006101000a81548173ffffffffffffffffffffffffffffffffffffffff021916908373ffffffffffffffffffffffffffffffffffffffff1602179055506040820151816003015560608201518160040155608082015181600501559050506080604051908101604052808381526020013373ffffffffffffffffffffffffffffffffffffffff16815260200142815260200160018152506002846040518082805190602001908083835b6020831015156103bc5780518252602082019150602081019050602083039250610397565b6001836020036101000a03801982511681845116808217855250505050505090500191505090815260200160405180910390206001016000808152602001908152602001600020600082015181600001908051906020019061041f929190610774565b5060208201518160010160006101000a81548173ffffffffffffffffffffffffffffffffffffffff021916908373ffffffffffffffffffffffffffffffffffffffff1602179055506040820151816002015560608201518160030155905050600080549050905092915050565b600080600160009054906101000a900473ffffffffffffffffffffffffffffffffffffffff1673ffffffffffffffffffffffffffffffffffffffff166370a456cc336040518263ffffffff167c0100000000000000000000000000000000000000000000000000000000028152600401808273ffffffffffffffffffffffffffffffffffffffff1673ffffffffffffffffffffffffffffffffffffffff168152602001915050602060405180830381600087803b15801561054c57600080fd5b505af1158015610560573d6000803e3d6000fd5b505050506040513d602081101561057657600080fd5b8101908080519060200190929190505050151561059257600080fd5b6002836040518082805190602001908083835b6020831015156105ca57805182526020820191506020810190506020830392506105a5565b6001836020036101000a038019825116818451168082178552505050505050905001915050908152602001604051809103902090506080604051908101604052808581526020013373ffffffffffffffffffffffffffffffffffffffff1681526020014281526020016001836004015401815250816001016000836004015481526020019081526020016000206000820151816000019080519060200190610673929190610774565b5060208201518160010160006101000a81548173ffffffffffffffffffffffffffffffffffffffff021916908373ffffffffffffffffffffffffffffffffffffffff16021790555060408201518160020155606082015181600301559050508060040160008154809291906001019190505550806004015491505092915050565b828054600181600116156101000203166002900490600052602060002090601f016020900481019282601f1061073557805160ff1916838001178555610763565b82800160010185558215610763579182015b82811115610762578251825591602001919060010190610747565b5b50905061077091906107f4565b5090565b828054600181600116156101000203166002900490600052602060002090601f016020900481019282601f106107b557805160ff19168380011785556107e3565b828001600101855582156107e3579182015b828111156107e25782518255916020019190600101906107c7565b5b5090506107f091906107f4565b5090565b61081691905b808211156108125760008160009055506001016107fa565b5090565b905600a165627a7a72305820c1403dc9ea48c9cc6ae4eb767cb1822f97e01db517797624d682c30290b727800029",
  "source": "pragma solidity ^0.4.24;\n\nimport \"../contracts/user.sol\";\n\ncontract topic {\n\n    struct topicStruct {\n      string title;\n      mapping (uint => messegeStruct) messegeStructMap;    //第一条消息为话题的介绍\n      address user;\n      uint time;\n      uint messegeSize;\n      uint index;\n    }\n\n    struct messegeStruct {\n      string messege;\n      address user;\n      uint time;\n      uint index;\n    }\n\n    string[] titles;               //存储所有标题\n    user u;\n\n    mapping (string => topicStruct) topicStructMap;   //标题对应话题\n\n    function createTopic(string _title, string _topicMessege) public returns (uint) {//创建话题,返回index\n      titles.push(_title);\n\n      topicStructMap[_title] = topicStruct({\n                                  title : _title,\n                                  user : msg.sender,\n                                  time : now,\n                                  messegeSize : 1,\n                                  index : titles.length\n        });\n      topicStructMap[_title].messegeStructMap[0] = messegeStruct(_topicMessege,msg.sender,now,1);\n      return titles.length;\n    }\n\n    function createMessege(string _messege, string _title) public returns(uint){ //在话题下追加消息，返回index\n      require(u.userAddressExist(msg.sender));//检验账户是否存在\n\n      topicStruct storage thisTopic = topicStructMap[_title];\n      thisTopic.messegeStructMap[thisTopic.messegeSize] = messegeStruct(_messege, msg.sender, now,thisTopic.messegeSize + 1);\n      thisTopic.messegeSize++;\n      return thisTopic.messegeSize;\n    }\n}\n",
  "sourcePath": "/home/hw/testfour/demo/contracts/topic.sol",
  "compiler": {
    "name": "solc",
    "version": "0.4.24+commit.e67f0147.Emscripten.clang"
  },
  "schemaVersion": "2.0.1",
  "updatedAt": "2018-07-18T08:00:24.587Z"
}