{
  "contractName": "topic",
  "abi": [
    {
      "constant": false,
      "inputs": [
        {
          "name": "_title",
          "type": "string"
        },
        {
          "name": "_topicMessege",
          "type": "string"
        }
      ],
      "name": "createTopic",
      "outputs": [
        {
          "name": "",
          "type": "uint256"
        }
      ],
      "payable": false,
      "stateMutability": "nonpayable",
      "type": "function"
    }
  ],
  "bytecode": "0x608060405234801561001057600080fd5b5061050f806100206000396000f300608060405260043610610041576000357c0100000000000000000000000000000000000000000000000000000000900463ffffffff1680630743c33a14610046575b600080fd5b34801561005257600080fd5b506100f3600480360381019080803590602001908201803590602001908080601f0160208091040260200160405190810160405280939291908181526020018383808284378201915050505050509192919290803590602001908201803590602001908080601f0160208091040260200160405190810160405280939291908181526020018383808284378201915050505050509192919290505050610109565b6040518082815260200191505060405180910390f35b6000808390806001815401808255809150509060018203906000526020600020016000909192909190915090805190602001906101479291906103be565b505060a0604051908101604052808481526020013373ffffffffffffffffffffffffffffffffffffffff168152602001428152602001600181526020016000805490508152506001846040518082805190602001908083835b6020831015156101c557805182526020820191506020810190506020830392506101a0565b6001836020036101000a0380198251168184511680821785525050505050509050019150509081526020016040518091039020600082015181600001908051906020019061021492919061043e565b5060208201518160020160006101000a81548173ffffffffffffffffffffffffffffffffffffffff021916908373ffffffffffffffffffffffffffffffffffffffff1602179055506040820151816003015560608201518160040155608082015181600501559050506080604051908101604052808381526020013373ffffffffffffffffffffffffffffffffffffffff16815260200142815260200160018152506001846040518082805190602001908083835b6020831015156102ee57805182526020820191506020810190506020830392506102c9565b6001836020036101000a03801982511681845116808217855250505050505090500191505090815260200160405180910390206001016000808152602001908152602001600020600082015181600001908051906020019061035192919061043e565b5060208201518160010160006101000a81548173ffffffffffffffffffffffffffffffffffffffff021916908373ffffffffffffffffffffffffffffffffffffffff1602179055506040820151816002015560608201518160030155905050600080549050905092915050565b828054600181600116156101000203166002900490600052602060002090601f016020900481019282601f106103ff57805160ff191683800117855561042d565b8280016001018555821561042d579182015b8281111561042c578251825591602001919060010190610411565b5b50905061043a91906104be565b5090565b828054600181600116156101000203166002900490600052602060002090601f016020900481019282601f1061047f57805160ff19168380011785556104ad565b828001600101855582156104ad579182015b828111156104ac578251825591602001919060010190610491565b5b5090506104ba91906104be565b5090565b6104e091905b808211156104dc5760008160009055506001016104c4565b5090565b905600a165627a7a723058201c6a8eef6b046b1536fc607156f803a5ce0d79bbd87ddfeee28b1443c577062e0029",
  "source": "pragma solidity ^0.4.24;\n\n//import \"../contracts/user.sol\";\n\ncontract topic {\n\n    struct topicStruct {\n      string title;\n      mapping (uint => messegeStruct) messegeStructMap;    //第一条消息为话题的介绍\n      address user;\n      uint time;\n      uint messegeSize;\n      uint index;\n    }\n\n    struct messegeStruct {\n      string messege;\n      address user;\n      uint time;\n      uint index;\n    }\n\n    string[] titles;               //存储所有标题\n\n    mapping (string => topicStruct) topicStructMap;   //标题对应话题\n\n    function createTopic(string _title, string _topicMessege) public returns (uint) {\n      titles.push(_title);\n\n      topicStructMap[_title] = topicStruct({\n                                  title : _title,\n                                  user : msg.sender,\n                                  time : now,\n                                  messegeSize : 1,\n                                  index : titles.length\n        });\n      topicStructMap[_title].messegeStructMap[0] = messegeStruct(_topicMessege,msg.sender,now,1);\n      return titles.length;\n    }\n}\n",
  "sourcePath": "/home/hw/testfour/demo/contracts/topic.sol",
  "compiler": {
    "name": "solc",
    "version": "0.4.24+commit.e67f0147.Emscripten.clang"
  },
  "schemaVersion": "2.0.1",
  "updatedAt": "2018-07-16T07:16:35.082Z"
}