{
  "contractName": "topic",
  "abi": [
    {
      "constant": false,
      "inputs": [
        {
          "name": "_title",
          "type": "string"
        }
      ],
      "name": "topicExist",
      "outputs": [
        {
          "name": "",
          "type": "bool"
        }
      ],
      "payable": false,
      "stateMutability": "nonpayable",
      "type": "function"
    },
    {
      "constant": false,
      "inputs": [
        {
          "name": "_title",
          "type": "string"
        }
      ],
      "name": "inquireTopicIndex",
      "outputs": [
        {
          "name": "",
          "type": "uint256"
        }
      ],
      "payable": false,
      "stateMutability": "nonpayable",
      "type": "function"
    },
    {
      "constant": false,
      "inputs": [
        {
          "name": "_title",
          "type": "string"
        },
        {
          "name": "_topicMessege",
          "type": "string"
        },
        {
          "name": "_pages",
          "type": "string"
        }
      ],
      "name": "createTopic",
      "outputs": [
        {
          "name": "",
          "type": "uint256"
        }
      ],
      "payable": false,
      "stateMutability": "nonpayable",
      "type": "function"
    },
    {
      "constant": false,
      "inputs": [
        {
          "name": "_title",
          "type": "string"
        },
        {
          "name": "_topicMessege",
          "type": "string"
        }
      ],
      "name": "changeTopic",
      "outputs": [
        {
          "name": "",
          "type": "uint256"
        }
      ],
      "payable": false,
      "stateMutability": "nonpayable",
      "type": "function"
    },
    {
      "constant": false,
      "inputs": [
        {
          "name": "_messege",
          "type": "string"
        },
        {
          "name": "_title",
          "type": "string"
        }
      ],
      "name": "createMessege",
      "outputs": [
        {
          "name": "",
          "type": "uint256"
        }
      ],
      "payable": false,
      "stateMutability": "nonpayable",
      "type": "function"
    },
    {
      "constant": false,
      "inputs": [
        {
          "name": "_title",
          "type": "string"
        },
        {
          "name": "_index",
          "type": "uint256"
        },
        {
          "name": "_messege",
          "type": "string"
        }
      ],
      "name": "changeMessege",
      "outputs": [
        {
          "name": "",
          "type": "uint256"
        }
      ],
      "payable": false,
      "stateMutability": "nonpayable",
      "type": "function"
    }
  ],
  "bytecode": "0x608060405234801561001057600080fd5b50611258806100206000396000f300608060405260043610610078576000357c0100000000000000000000000000000000000000000000000000000000900463ffffffff1680632e8882e91461007d5780632facb64f146101865780633a3d2aee1461024957806344d0af7a146102c65780635e8227ac14610393578063dd54ee6214610456575b600080fd5b34801561008957600080fd5b50610170600480360381019080803590602001908201803590602001908080601f0160208091040260200160405190810160405280939291908181526020018383808284378201915050505050509192919290803590602001908201803590602001908080601f0160208091040260200160405190810160405280939291908181526020018383808284378201915050505050509192919290803590602001908201803590602001908080601f01602080910402602001604051908101604052809392919081815260200183838082843782019150505050505091929192905050506104d7565b6040518082815260200191505060405180910390f35b34801561019257600080fd5b50610233600480360381019080803590602001908201803590602001908080601f0160208091040260200160405190810160405280939291908181526020018383808284378201915050505050509192919290803590602001908201803590602001908080601f0160208091040260200160405190810160405280939291908181526020018383808284378201915050505050509192919290505050610851565b6040518082815260200191505060405180910390f35b34801561025557600080fd5b506102b0600480360381019080803590602001908201803590602001908080601f0160208091040260200160405190810160405280939291908181526020018383808284378201915050505050509192919290505050610a86565b6040518082815260200191505060405180910390f35b3480156102d257600080fd5b5061037d600480360381019080803590602001908201803590602001908080601f016020809104026020016040519081016040528093929190818152602001838380828437820191505050505050919291929080359060200190929190803590602001908201803590602001908080601f0160208091040260200160405190810160405280939291908181526020018383808284378201915050505050509192919290505050610afe565b6040518082815260200191505060405180910390f35b34801561039f57600080fd5b50610440600480360381019080803590602001908201803590602001908080601f0160208091040260200160405190810160405280939291908181526020018383808284378201915050505050509192919290803590602001908201803590602001908080601f0160208091040260200160405190810160405280939291908181526020018383808284378201915050505050509192919290505050610cdd565b6040518082815260200191505060405180910390f35b34801561046257600080fd5b506104bd600480360381019080803590602001908201803590602001908080601f0160208091040260200160405190810160405280939291908181526020018383808284378201915050505050509192919290505050610fa5565b604051808215151515815260200191505060405180910390f35b600060606104e485610fa5565b1515156104f057600080fd5b600085908060018154018082558091505090600182039060005260206000200160009091929091909150908051906020019061052d9291906110ba565b505060016080604051908101604052808681526020013373ffffffffffffffffffffffffffffffffffffffff1681526020014281526020016001805490508152509080600181540180825580915050906001820390600052602060002090600402016000909192909190915060008201518160000190805190602001906105b592919061113a565b5060208201518160010160006101000a81548173ffffffffffffffffffffffffffffffffffffffff021916908373ffffffffffffffffffffffffffffffffffffffff160217905550604082015181600201556060820151816003015550505060016040519080825280602002602001820160405280156106445781602001602082028038833980820191505090505b509050600180805490500381600081518110151561065e57fe5b906020019060200201818152505060408051908101604052808681526020016000805490508152506004866040518082805190602001908083835b6020831015156106be5780518252602082019150602081019050602083039250610699565b6001836020036101000a0380198251168184511680821785525050505050509050019150509081526020016040518091039020600082015181600001908051906020019061070d92919061113a565b506020820151816001015590505060e0604051908101604052808681526020018281526020013373ffffffffffffffffffffffffffffffffffffffff168152602001848152602001428152602001600181526020016000805490508152506003600080805490508152602001908152602001600020600082015181600001908051906020019061079e92919061113a565b5060208201518160010190805190602001906107bb9291906111ba565b5060408201518160020160006101000a81548173ffffffffffffffffffffffffffffffffffffffff021916908373ffffffffffffffffffffffffffffffffffffffff160217905550606082015181600301908051906020019061081f92919061113a565b506080820151816004015560a0820151816005015560c082015181600601559050506000805490509150509392505050565b600080600260009054906101000a900473ffffffffffffffffffffffffffffffffffffffff1673ffffffffffffffffffffffffffffffffffffffff166370a456cc336040518263ffffffff167c0100000000000000000000000000000000000000000000000000000000028152600401808273ffffffffffffffffffffffffffffffffffffffff1673ffffffffffffffffffffffffffffffffffffffff168152602001915050602060405180830381600087803b15801561091157600080fd5b505af1158015610925573d6000803e3d6000fd5b505050506040513d602081101561093b57600080fd5b8101908080519060200190929190505050151561095757600080fd5b61096084610fa5565b151561096b57600080fd5b6003600061097886610a86565b815260200190815260200160002090508060020160009054906101000a900473ffffffffffffffffffffffffffffffffffffffff1673ffffffffffffffffffffffffffffffffffffffff163373ffffffffffffffffffffffffffffffffffffffff161415156109e657600080fd5b8260018260010160008154811015156109fb57fe5b9060005260206000200154815481101515610a1257fe5b90600052602060002090600402016000019080519060200190610a369291906110ba565b50426001826001016000815481101515610a4c57fe5b9060005260206000200154815481101515610a6357fe5b906000526020600020906004020160020181905550806006015491505092915050565b60006004826040518082805190602001908083835b602083101515610ac05780518252602082019150602081019050602083039250610a9b565b6001836020036101000a0380198251168184511680821785525050505050509050019150509081526020016040518091039020600101549050919050565b6000806000600260009054906101000a900473ffffffffffffffffffffffffffffffffffffffff1673ffffffffffffffffffffffffffffffffffffffff166370a456cc336040518263ffffffff167c0100000000000000000000000000000000000000000000000000000000028152600401808273ffffffffffffffffffffffffffffffffffffffff1673ffffffffffffffffffffffffffffffffffffffff168152602001915050602060405180830381600087803b158015610bc057600080fd5b505af1158015610bd4573d6000803e3d6000fd5b505050506040513d6020811015610bea57600080fd5b81019080805190602001909291905050501515610c0657600080fd5b610c0f86610fa5565b1515610c1a57600080fd5b60036000610c2788610a86565b81526020019081526020016000209150600185815481101515610c4657fe5b906000526020600020906004020190508060010160009054906101000a900473ffffffffffffffffffffffffffffffffffffffff1673ffffffffffffffffffffffffffffffffffffffff163373ffffffffffffffffffffffffffffffffffffffff16141515610cb457600080fd5b83816000019080519060200190610ccc9291906110ba565b508060030154925050509392505050565b600080600260009054906101000a900473ffffffffffffffffffffffffffffffffffffffff1673ffffffffffffffffffffffffffffffffffffffff166370a456cc336040518263ffffffff167c0100000000000000000000000000000000000000000000000000000000028152600401808273ffffffffffffffffffffffffffffffffffffffff1673ffffffffffffffffffffffffffffffffffffffff168152602001915050602060405180830381600087803b158015610d9d57600080fd5b505af1158015610db1573d6000803e3d6000fd5b505050506040513d6020811015610dc757600080fd5b81019080805190602001909291905050501515610de357600080fd5b610dec83610fa5565b1515610df757600080fd5b600360006004856040518082805190602001908083835b602083101515610e335780518252602082019150602081019050602083039250610e0e565b6001836020036101000a0380198251168184511680821785525050505050509050019150509081526020016040518091039020600101548152602001908152602001600020905060016080604051908101604052808681526020013373ffffffffffffffffffffffffffffffffffffffff168152602001428152602001600180549050815250908060018154018082558091505090600182039060005260206000209060040201600090919290919091506000820151816000019080519060200190610f0092919061113a565b5060208201518160010160006101000a81548173ffffffffffffffffffffffffffffffffffffffff021916908373ffffffffffffffffffffffffffffffffffffffff16021790555060408201518160020155606082015181600301555050508060010160018080549050039080600181540180825580915050906001820390600052602060002001600090919290919091505550600180805490500391505092915050565b6000806000805490501415610fbd57600090506110b5565b816040518082805190602001908083835b602083101515610ff35780518252602082019150602081019050602083039250610fce565b6001836020036101000a038019825116818451168082178552505050505050905001915050604051809103902060001916600061102f84610a86565b81548110151561103b57fe5b9060005260206000200160405180828054600181600116156101000203166002900480156110a05780601f1061107e5761010080835404028352918201916110a0565b820191906000526020600020905b81548152906001019060200180831161108c575b50509150506040518091039020600019161490505b919050565b828054600181600116156101000203166002900490600052602060002090601f016020900481019282601f106110fb57805160ff1916838001178555611129565b82800160010185558215611129579182015b8281111561112857825182559160200191906001019061110d565b5b5090506111369190611207565b5090565b828054600181600116156101000203166002900490600052602060002090601f016020900481019282601f1061117b57805160ff19168380011785556111a9565b828001600101855582156111a9579182015b828111156111a857825182559160200191906001019061118d565b5b5090506111b69190611207565b5090565b8280548282559060005260206000209081019282156111f6579160200282015b828111156111f55782518255916020019190600101906111da565b5b5090506112039190611207565b5090565b61122991905b8082111561122557600081600090555060010161120d565b5090565b905600a165627a7a723058207dd9a5141be697a018b964f7f918aea669d9bdd3f0027f4f2ada8a8a3fcebd7d0029",
  "source": "pragma solidity ^0.4.24;\n\nimport \"../contracts/user.sol\";\nimport \"../contracts/pages.sol\";\n\ncontract topic {\n\n    struct topicStruct {                                      //话题结构\n      string title;\n      //mapping (uint => messegeStruct) messegeStructMap;    \n      uint[] indexs;                                        //存储该话题下的所有信息的index,第一条消息为话题的介绍\n      address user;\n      string pages;                                        //用于存储话题所属的分类\n      uint time;\n      uint messegeSize;\n      uint index;\n    }\n\n    struct topicListStruct {                              //话题辅助结构\n        string title;\n        uint index;\n    }\n\n    struct messegeStruct {                               //话题下的信息结构\n      string messege;\n      address user;\n      uint time;\n      uint index;\n    }\n    \n\n    string[] titles;               //存储所有标题\n    messegeStruct[] messeges;      //存储所有信息\n    user u;\n\n    mapping (uint => topicStruct) topicStructMap;   //话题序号对应话题\n    mapping (string => topicListStruct) topicListStructMap;    //话题标题对应话题序\n\n    function topicExist(string _title) public returns (bool) {                     //检验话题是否存在\n        if (titles.length == 0)    return false;\n        return (keccak256(titles[inquireTopicIndex(_title)]) == keccak256(_title));\n    }\n\n    function inquireTopicIndex(string _title) public returns (uint) {                  //通过话题标题来查找话题index\n        return topicListStructMap[_title].index;\n    }\n\n    function createTopic(string _title, string _topicMessege, string _pages) public returns (uint) { //创建话题,返回index\n      require(!topicExist(_title));                               //检验话题是否存在\n\n      titles.push(_title);   \n      messeges.push(messegeStruct({                                  //生成新的信息结构并放入数组中\n                                    messege : _topicMessege,\n                                    user : msg.sender,\n                                    time : now,\n                                    index : messeges.length\n      }));\n\n      uint[] memory idxs = new uint[](1);             //建立用于信息序号的数组\n      idxs[0] = messeges.length - 1;                  //将第一条信息，即话题的简介的序号放入数组第一个\n\n      topicListStructMap[_title] = topicListStruct({\n                                title : _title,\n                                index : titles.length\n      });\n\n      topicStructMap[titles.length] = topicStruct({\n                                  title : _title,\n                                  indexs : idxs,\n                                  user : msg.sender,\n                                  pages: _pages,\n                                  time : now,\n                                  messegeSize : 1,\n                                  index : titles.length\n        });\n      //topicStructMap[titles.length].messegeStructMap[0] = messegeStruct(_topicMessege,msg.sender,now,0);\n      return titles.length;\n    }\n\n    function changeTopic(string _title,string _topicMessege)public returns (uint) { //修改话题信息，返回index(仅限题主修改)\n        require(u.userAddressExist(msg.sender));                                //检验用户是否存在\n        require(topicExist(_title));                                            //检验话题是否存在\n        \n        topicStruct thisTopic = topicStructMap[inquireTopicIndex(_title)];\n\n        require(msg.sender == thisTopic.user);                //检验是否是题主\n        //thisTopic.messegeStructMap[0].messege=_topicMessege;\n        messeges[thisTopic.indexs[0]].messege = _topicMessege;\n        messeges[thisTopic.indexs[0]].time = now;\n\n        return thisTopic.index;\n        \n    }\n\n /*   function showTopicIndex() public returns (uint[]){                //返回用户的所有话题的index\n        require(u.userAddressExist(msg.sender));                      //检验用户是否存在\n        //\n    }\n\n    function inquireTopicT(string _title) public returns (string, address, uint, uint, uint){          //通过标题查找话题\n\n    }\n\n    function inquireTopicI(uint _index) public returns (string, address, uint, uint, uint) {           //通过index查找话题\n        \n    }\n\n    function deleteTopic(string _title) public returns (bool){                                    //通过标题删除话题(仅限题主)\n\n    }\n\n*/\n    function createMessege(string _messege, string _title) public returns(uint){ //在话题下追加消息，返回index\n      require(u.userAddressExist(msg.sender));                                           //检验用户是否存在\n      require(topicExist(_title));                                                       //检验话题是否存在\n\n      topicStruct  thisTopic = topicStructMap[topicListStructMap[_title].index];\n      //thisTopic.messegeStructMap[thisTopic.messegeSize] = messegeStruct(_messege, msg.sender, now,thisTopic.messegeSize);\n      //thisTopic.messegeSize++;\n      messeges.push(messegeStruct({\n                                    messege : _messege,\n                                    user : msg.sender,\n                                    time : now,\n                                    index : messeges.length\n      }));\n      thisTopic.indexs.push(messeges.length - 1);\n      return messeges.length - 1;\n    }\n/*\n    function showMessegeIndex() public returns (uint[]){                      //返回用户的所有消息的index\n        require(user.userAddressExist(msg.sender));                                      //检验用户是否存在\n        //uint[] indexs = new uint[]\n    }\n*/\n    function changeMessege(string _title, uint _index, string _messege)public returns (uint){ //修改话题下的信息，返回index(仅限答主修改)\n        require(u.userAddressExist(msg.sender));                                     //检验用户是否存在\n        require(topicExist(_title));                                                 //检验话题是否存在\n\n        topicStruct thisTopic = topicStructMap[inquireTopicIndex(_title)];\n        messegeStruct thisMessege = messeges[_index];\n        require(msg.sender == thisMessege.user);                                    //检验是否是答主\n        thisMessege.messege = _messege;\n\n        return thisMessege.index;\n    }\n\n    //查找话题下的信息\n\n    //删除话题下的信息（\n}\n",
  "sourcePath": "/home/hw/Information-Exchange-DAPP/demo/contracts/topic.sol",
  "compiler": {
    "name": "solc",
    "version": "0.4.24+commit.e67f0147.Emscripten.clang"
  },
  "schemaVersion": "2.0.1",
  "updatedAt": "2018-11-23T14:36:29.704Z"
}