{
  "contractName": "user",
  "abi": [
    {
      "constant": true,
      "inputs": [
        {
          "name": "_userName",
          "type": "string"
        }
      ],
      "name": "userNameExist",
      "outputs": [
        {
          "name": "",
          "type": "bool"
        }
      ],
      "payable": false,
      "stateMutability": "view",
      "type": "function"
    },
    {
      "constant": true,
      "inputs": [
        {
          "name": "_userAddress",
          "type": "address"
        }
      ],
      "name": "userAddressExist",
      "outputs": [
        {
          "name": "",
          "type": "bool"
        }
      ],
      "payable": false,
      "stateMutability": "view",
      "type": "function"
    },
    {
      "constant": false,
      "inputs": [
        {
          "name": "_userName",
          "type": "string"
        }
      ],
      "name": "createUser",
      "outputs": [
        {
          "name": "",
          "type": "uint256"
        }
      ],
      "payable": false,
      "stateMutability": "nonpayable",
      "type": "function"
    },
    {
      "constant": true,
      "inputs": [
        {
          "name": "_userAddress",
          "type": "address"
        }
      ],
      "name": "inquireUserA",
      "outputs": [
        {
          "name": "",
          "type": "string"
        },
        {
          "name": "",
          "type": "address"
        },
        {
          "name": "",
          "type": "uint256"
        }
      ],
      "payable": false,
      "stateMutability": "view",
      "type": "function"
    },
    {
      "constant": true,
      "inputs": [
        {
          "name": "_userName",
          "type": "string"
        }
      ],
      "name": "inquireUserN",
      "outputs": [
        {
          "name": "",
          "type": "string"
        },
        {
          "name": "",
          "type": "address"
        },
        {
          "name": "",
          "type": "uint256"
        }
      ],
      "payable": false,
      "stateMutability": "view",
      "type": "function"
    }
  ],
  "bytecode": "0x608060405234801561001057600080fd5b50610e17806100206000396000f30060806040526004361061006d576000357c0100000000000000000000000000000000000000000000000000000000900463ffffffff168063507ffba5146100725780635381a564146100ef57806361f34bc5146101705780636998b8cc1461026657806370a456cc14610382575b600080fd5b34801561007e57600080fd5b506100d9600480360381019080803590602001908201803590602001908080601f01602080910402602001604051908101604052809392919081815260200183838082843782019150505050505091929192905050506103dd565b6040518082815260200191505060405180910390f35b3480156100fb57600080fd5b50610156600480360381019080803590602001908201803590602001908080601f0160208091040260200160405190810160405280939291908181526020018383808284378201915050505050509192919290505050610699565b604051808215151515815260200191505060405180910390f35b34801561017c57600080fd5b506101b1600480360381019080803573ffffffffffffffffffffffffffffffffffffffff169060200190929190505050610814565b60405180806020018473ffffffffffffffffffffffffffffffffffffffff1673ffffffffffffffffffffffffffffffffffffffff168152602001838152602001828103825285818151815260200191508051906020019080838360005b8381101561022957808201518184015260208101905061020e565b50505050905090810190601f1680156102565780820380516001836020036101000a031916815260200191505b5094505050505060405180910390f35b34801561027257600080fd5b506102cd600480360381019080803590602001908201803590602001908080601f01602080910402602001604051908101604052809392919081815260200183838082843782019150505050505091929192905050506109be565b60405180806020018473ffffffffffffffffffffffffffffffffffffffff1673ffffffffffffffffffffffffffffffffffffffff168152602001838152602001828103825285818151815260200191508051906020019080838360005b8381101561034557808201518184015260208101905061032a565b50505050905090810190601f1680156103725780820380516001836020036101000a031916815260200191505b5094505050505060405180910390f35b34801561038e57600080fd5b506103c3600480360381019080803573ffffffffffffffffffffffffffffffffffffffff169060200190929190505050610bfc565b604051808215151515815260200191505060405180910390f35b60006103e833610bfc565b1515156103f457600080fd5b6103fd82610699565b15151561040957600080fd5b60003390806001815401808255809150509060018203906000526020600020016000909192909190916101000a81548173ffffffffffffffffffffffffffffffffffffffff021916908373ffffffffffffffffffffffffffffffffffffffff1602179055505060018290806001815401808255809150509060018203906000526020600020016000909192909190915090805190602001906104ac929190610cc6565b50506060604051908101604052808381526020013373ffffffffffffffffffffffffffffffffffffffff168152602001600160008054905003815250600360003373ffffffffffffffffffffffffffffffffffffffff1673ffffffffffffffffffffffffffffffffffffffff1681526020019081526020016000206000820151816000019080519060200190610543929190610d46565b5060208201518160010160006101000a81548173ffffffffffffffffffffffffffffffffffffffff021916908373ffffffffffffffffffffffffffffffffffffffff1602179055506040820151816002015590505060408051908101604052803373ffffffffffffffffffffffffffffffffffffffff16815260200160018080549050038152506002836040518082805190602001908083835b60208310151561060257805182526020820191506020810190506020830392506105dd565b6001836020036101000a038019825116818451168082178552505050505050905001915050908152602001604051809103902060008201518160000160006101000a81548173ffffffffffffffffffffffffffffffffffffffff021916908373ffffffffffffffffffffffffffffffffffffffff160217905550602082015181600101559050506001600080549050039050919050565b60008060018054905014156106b1576000905061080f565b816040518082805190602001908083835b6020831015156106e757805182526020820191506020810190506020830392506106c2565b6001836020036101000a03801982511681845116808217855250505050505090500191505060405180910390206000191660016002846040518082805190602001908083835b602083101515610752578051825260208201915060208101905060208303925061072d565b6001836020036101000a03801982511681845116808217855250505050505090500191505090815260200160405180910390206001015481548110151561079557fe5b9060005260206000200160405180828054600181600116156101000203166002900480156107fa5780601f106107d85761010080835404028352918201916107fa565b820191906000526020600020905b8154815290600101906020018083116107e6575b50509150506040518091039020600019161490505b919050565b606060008061082284610bfc565b151561082d57600080fd5b600360008573ffffffffffffffffffffffffffffffffffffffff1673ffffffffffffffffffffffffffffffffffffffff168152602001908152602001600020600001600360008673ffffffffffffffffffffffffffffffffffffffff1673ffffffffffffffffffffffffffffffffffffffff16815260200190815260200160002060010160009054906101000a900473ffffffffffffffffffffffffffffffffffffffff16600360008773ffffffffffffffffffffffffffffffffffffffff1673ffffffffffffffffffffffffffffffffffffffff16815260200190815260200160002060020154828054600181600116156101000203166002900480601f0160208091040260200160405190810160405280929190818152602001828054600181600116156101000203166002900480156109aa5780601f1061097f576101008083540402835291602001916109aa565b820191906000526020600020905b81548152906001019060200180831161098d57829003601f168201915b505050505092509250925092509193909250565b606060008060006109ce85610699565b15156109d957600080fd5b6002856040518082805190602001908083835b602083101515610a1157805182526020820191506020810190506020830392506109ec565b6001836020036101000a038019825116818451168082178552505050505050905001915050908152602001604051809103902060000160009054906101000a900473ffffffffffffffffffffffffffffffffffffffff169050600360008273ffffffffffffffffffffffffffffffffffffffff1673ffffffffffffffffffffffffffffffffffffffff168152602001908152602001600020600001600360008373ffffffffffffffffffffffffffffffffffffffff1673ffffffffffffffffffffffffffffffffffffffff16815260200190815260200160002060010160009054906101000a900473ffffffffffffffffffffffffffffffffffffffff16600360008473ffffffffffffffffffffffffffffffffffffffff1673ffffffffffffffffffffffffffffffffffffffff16815260200190815260200160002060020154828054600181600116156101000203166002900480601f016020809104026020016040519081016040528092919081815260200182805460018160011615610100020316600290048015610be75780601f10610bbc57610100808354040283529160200191610be7565b820191906000526020600020905b815481529060010190602001808311610bca57829003601f168201915b50505050509250935093509350509193909250565b6000806000805490501415610c145760009050610cc1565b8173ffffffffffffffffffffffffffffffffffffffff166000600360008573ffffffffffffffffffffffffffffffffffffffff1673ffffffffffffffffffffffffffffffffffffffff16815260200190815260200160002060020154815481101515610c7c57fe5b9060005260206000200160009054906101000a900473ffffffffffffffffffffffffffffffffffffffff1673ffffffffffffffffffffffffffffffffffffffff161490505b919050565b828054600181600116156101000203166002900490600052602060002090601f016020900481019282601f10610d0757805160ff1916838001178555610d35565b82800160010185558215610d35579182015b82811115610d34578251825591602001919060010190610d19565b5b509050610d429190610dc6565b5090565b828054600181600116156101000203166002900490600052602060002090601f016020900481019282601f10610d8757805160ff1916838001178555610db5565b82800160010185558215610db5579182015b82811115610db4578251825591602001919060010190610d99565b5b509050610dc29190610dc6565b5090565b610de891905b80821115610de4576000816000905550600101610dcc565b5090565b905600a165627a7a72305820f73c43e80a179f70ab81df351409647adff6c31a3ebe569e927f0ce8621fdb520029",
  "source": "pragma solidity ^0.4.24;\n\ncontract user {\n\n  struct userStruct {\n    string userName;\n    address userAddress;\n    uint index;\n  }\n\n  struct userListStruct {\n    address userAddress;\n    uint index;\n  }\n\n  address[] private userAddresses;              //存储所有地址\n  string[] private userNames;                   //存储所有用户名\n\n  mapping (string => userListStruct) userListMap;          //便于用用户名查找地址\n  mapping (address => userStruct) userMap;                 //便于用地址查找用户名\n\n  function userNameExist(string _userName) public constant returns (bool) {   //检验用户名是否存在\n    if( userNames.length == 0) return false;\n    return (keccak256(userNames[userListMap[_userName].index]) == keccak256(_userName));\n  }//string 不能直接用==比较，使用hash函数转换比较较为便捷\n\n  function userAddressExist(address _userAddress)public constant returns (bool) {    //检验地址是否存在\n    if(userAddresses.length == 0) return false;\n    return  (userAddresses[userMap[_userAddress].index] == _userAddress);\n  }\n\nfunction createUser (string _userName)public returns (uint) {   //创建用户返回index\n  require(!userAddressExist(msg.sender));\n  require(!userNameExist(_userName));\n\n  userAddresses.push(msg.sender);\n  userNames.push(_userName);\n\n  userMap[msg.sender] = userStruct({\n                                         userName : _userName,\n                                         userAddress : msg.sender,\n                                         index : userAddresses.length - 1\n    });\n  userListMap[_userName] = userListStruct({\n                                            userAddress : msg.sender,\n                                            index : userNames.length - 1\n    });\n    return userAddresses.length - 1;\n}\n\nfunction inquireUserA(address _userAddress)public constant returns (string, address, uint) {   //根据地址查找用户信息\n  require(userAddressExist(_userAddress));\n\n  return (\n    userMap[_userAddress].userName,\n    userMap[_userAddress].userAddress,\n    userMap[_userAddress].index\n    );\n}\n\nfunction inquireUserN(string _userName)public constant returns (string, address, uint) {   //根据用户名查找用户信息\n  require(userNameExist(_userName));\n  address _userAddress = userListMap[_userName].userAddress;\n\n  return (\n    userMap[_userAddress].userName,\n    userMap[_userAddress].userAddress,\n    userMap[_userAddress].index\n    );\n}\n\n}\n",
  "sourcePath": "/home/hw/testfour/demo/contracts/user.sol",
  "compiler": {
    "name": "solc",
    "version": "0.4.24+commit.e67f0147.Emscripten.clang"
  },
  "schemaVersion": "2.0.1",
  "updatedAt": "2018-07-18T08:00:24.601Z"
}