{
  "contractName": "user",
  "abi": [
    {
      "anonymous": false,
      "inputs": [
        {
          "indexed": false,
          "name": "_name",
          "type": "string"
        }
      ],
      "name": "printUserName",
      "type": "event"
    },
    {
      "constant": true,
      "inputs": [
        {
          "name": "_userName",
          "type": "string"
        }
      ],
      "name": "userNameExist",
      "outputs": [
        {
          "name": "",
          "type": "bool"
        }
      ],
      "payable": false,
      "stateMutability": "view",
      "type": "function"
    },
    {
      "constant": true,
      "inputs": [
        {
          "name": "_userAddress",
          "type": "address"
        }
      ],
      "name": "userAddressExist",
      "outputs": [
        {
          "name": "",
          "type": "bool"
        }
      ],
      "payable": false,
      "stateMutability": "view",
      "type": "function"
    },
    {
      "constant": false,
      "inputs": [
        {
          "name": "_userName",
          "type": "string"
        }
      ],
      "name": "createUser",
      "outputs": [
        {
          "name": "",
          "type": "uint256"
        }
      ],
      "payable": false,
      "stateMutability": "nonpayable",
      "type": "function"
    },
    {
      "constant": true,
      "inputs": [
        {
          "name": "_userAddress",
          "type": "address"
        }
      ],
      "name": "inquireUserA",
      "outputs": [
        {
          "name": "",
          "type": "string"
        },
        {
          "name": "",
          "type": "address"
        },
        {
          "name": "",
          "type": "uint256"
        }
      ],
      "payable": false,
      "stateMutability": "view",
      "type": "function"
    },
    {
      "constant": true,
      "inputs": [
        {
          "name": "_userName",
          "type": "string"
        }
      ],
      "name": "inquireUserN",
      "outputs": [
        {
          "name": "",
          "type": "string"
        },
        {
          "name": "",
          "type": "address"
        },
        {
          "name": "",
          "type": "uint256"
        }
      ],
      "payable": false,
      "stateMutability": "view",
      "type": "function"
    },
    {
      "constant": false,
      "inputs": [
        {
          "name": "_name",
          "type": "string"
        }
      ],
      "name": "changeUserName",
      "outputs": [
        {
          "name": "",
          "type": "bool"
        }
      ],
      "payable": false,
      "stateMutability": "nonpayable",
      "type": "function"
    },
    {
      "constant": false,
      "inputs": [],
      "name": "deleteUser",
      "outputs": [
        {
          "name": "",
          "type": "bool"
        }
      ],
      "payable": false,
      "stateMutability": "nonpayable",
      "type": "function"
    }
  ],
  "bytecode": "0x608060405234801561001057600080fd5b5061156f806100206000396000f300608060405260043610610083576000357c0100000000000000000000000000000000000000000000000000000000900463ffffffff168063026ff05e14610088578063507ffba5146100b75780635381a5641461013457806361f34bc5146101b55780636998b8cc146102ab57806370a456cc146103c7578063a5e737bd14610422575b600080fd5b34801561009457600080fd5b5061009d6104a3565b604051808215151515815260200191505060405180910390f35b3480156100c357600080fd5b5061011e600480360381019080803590602001908201803590602001908080601f01602080910402602001604051908101604052809392919081815260200183838082843782019150505050505091929192905050506106f6565b6040518082815260200191505060405180910390f35b34801561014057600080fd5b5061019b600480360381019080803590602001908201803590602001908080601f0160208091040260200160405190810160405280939291908181526020018383808284378201915050505050509192919290505050610a4e565b604051808215151515815260200191505060405180910390f35b3480156101c157600080fd5b506101f6600480360381019080803573ffffffffffffffffffffffffffffffffffffffff169060200190929190505050610bc9565b60405180806020018473ffffffffffffffffffffffffffffffffffffffff1673ffffffffffffffffffffffffffffffffffffffff168152602001838152602001828103825285818151815260200191508051906020019080838360005b8381101561026e578082015181840152602081019050610253565b50505050905090810190601f16801561029b5780820380516001836020036101000a031916815260200191505b5094505050505060405180910390f35b3480156102b757600080fd5b50610312600480360381019080803590602001908201803590602001908080601f0160208091040260200160405190810160405280939291908181526020018383808284378201915050505050509192919290505050610d73565b60405180806020018473ffffffffffffffffffffffffffffffffffffffff1673ffffffffffffffffffffffffffffffffffffffff168152602001838152602001828103825285818151815260200191508051906020019080838360005b8381101561038a57808201518184015260208101905061036f565b50505050905090810190601f1680156103b75780820380516001836020036101000a031916815260200191505b5094505050505060405180910390f35b3480156103d357600080fd5b50610408600480360381019080803573ffffffffffffffffffffffffffffffffffffffff169060200190929190505050610fb1565b604051808215151515815260200191505060405180910390f35b34801561042e57600080fd5b50610489600480360381019080803590602001908201803590602001908080601f016020809104026020016040519081016040528093929190818152602001838380828437820191505050505050919291929050505061107b565b604051808215151515815260200191505060405180910390f35b60006002600360003373ffffffffffffffffffffffffffffffffffffffff1673ffffffffffffffffffffffffffffffffffffffff16815260200190815260200160002060000160405180828054600181600116156101000203166002900480156105445780601f10610522576101008083540402835291820191610544565b820191906000526020600020905b815481529060010190602001808311610530575b50509150509081526020016040518091039020600080820160006101000a81549073ffffffffffffffffffffffffffffffffffffffff0219169055600182016000905550506001600360003373ffffffffffffffffffffffffffffffffffffffff1673ffffffffffffffffffffffffffffffffffffffff168152602001908152602001600020600201548154811015156105da57fe5b9060005260206000200160006105f091906113d6565b6000600360003373ffffffffffffffffffffffffffffffffffffffff1673ffffffffffffffffffffffffffffffffffffffff1681526020019081526020016000206002015481548110151561064157fe5b9060005260206000200160006101000a81549073ffffffffffffffffffffffffffffffffffffffff0219169055600360003373ffffffffffffffffffffffffffffffffffffffff1673ffffffffffffffffffffffffffffffffffffffff168152602001908152602001600020600080820160006106be91906113d6565b6001820160006101000a81549073ffffffffffffffffffffffffffffffffffffffff0219169055600282016000905550506001905090565b600061070133610fb1565b15151561070d57600080fd5b61071682610a4e565b15151561072257600080fd5b60003390806001815401808255809150509060018203906000526020600020016000909192909190916101000a81548173ffffffffffffffffffffffffffffffffffffffff021916908373ffffffffffffffffffffffffffffffffffffffff1602179055505060018290806001815401808255809150509060018203906000526020600020016000909192909190915090805190602001906107c592919061141e565b50506060604051908101604052808381526020013373ffffffffffffffffffffffffffffffffffffffff168152602001600160008054905003815250600360003373ffffffffffffffffffffffffffffffffffffffff1673ffffffffffffffffffffffffffffffffffffffff168152602001908152602001600020600082015181600001908051906020019061085c92919061149e565b5060208201518160010160006101000a81548173ffffffffffffffffffffffffffffffffffffffff021916908373ffffffffffffffffffffffffffffffffffffffff1602179055506040820151816002015590505060408051908101604052803373ffffffffffffffffffffffffffffffffffffffff16815260200160018080549050038152506002836040518082805190602001908083835b60208310151561091b57805182526020820191506020810190506020830392506108f6565b6001836020036101000a038019825116818451168082178552505050505050905001915050908152602001604051809103902060008201518160000160006101000a81548173ffffffffffffffffffffffffffffffffffffffff021916908373ffffffffffffffffffffffffffffffffffffffff160217905550602082015181600101559050507f8f75ee48a1be9a769d7440ee425633c5e886da7391db2432720df19c0ff7bf15826040518080602001828103825283818151815260200191508051906020019080838360005b83811015610a045780820151818401526020810190506109e9565b50505050905090810190601f168015610a315780820380516001836020036101000a031916815260200191505b509250505060405180910390a16001600080549050039050919050565b6000806001805490501415610a665760009050610bc4565b816040518082805190602001908083835b602083101515610a9c5780518252602082019150602081019050602083039250610a77565b6001836020036101000a03801982511681845116808217855250505050505090500191505060405180910390206000191660016002846040518082805190602001908083835b602083101515610b075780518252602082019150602081019050602083039250610ae2565b6001836020036101000a038019825116818451168082178552505050505050905001915050908152602001604051809103902060010154815481101515610b4a57fe5b906000526020600020016040518082805460018160011615610100020316600290048015610baf5780601f10610b8d576101008083540402835291820191610baf565b820191906000526020600020905b815481529060010190602001808311610b9b575b50509150506040518091039020600019161490505b919050565b6060600080610bd784610fb1565b1515610be257600080fd5b600360008573ffffffffffffffffffffffffffffffffffffffff1673ffffffffffffffffffffffffffffffffffffffff168152602001908152602001600020600001600360008673ffffffffffffffffffffffffffffffffffffffff1673ffffffffffffffffffffffffffffffffffffffff16815260200190815260200160002060010160009054906101000a900473ffffffffffffffffffffffffffffffffffffffff16600360008773ffffffffffffffffffffffffffffffffffffffff1673ffffffffffffffffffffffffffffffffffffffff16815260200190815260200160002060020154828054600181600116156101000203166002900480601f016020809104026020016040519081016040528092919081815260200182805460018160011615610100020316600290048015610d5f5780601f10610d3457610100808354040283529160200191610d5f565b820191906000526020600020905b815481529060010190602001808311610d4257829003601f168201915b505050505092509250925092509193909250565b60606000806000610d8385610a4e565b1515610d8e57600080fd5b6002856040518082805190602001908083835b602083101515610dc65780518252602082019150602081019050602083039250610da1565b6001836020036101000a038019825116818451168082178552505050505050905001915050908152602001604051809103902060000160009054906101000a900473ffffffffffffffffffffffffffffffffffffffff169050600360008273ffffffffffffffffffffffffffffffffffffffff1673ffffffffffffffffffffffffffffffffffffffff168152602001908152602001600020600001600360008373ffffffffffffffffffffffffffffffffffffffff1673ffffffffffffffffffffffffffffffffffffffff16815260200190815260200160002060010160009054906101000a900473ffffffffffffffffffffffffffffffffffffffff16600360008473ffffffffffffffffffffffffffffffffffffffff1673ffffffffffffffffffffffffffffffffffffffff16815260200190815260200160002060020154828054600181600116156101000203166002900480601f016020809104026020016040519081016040528092919081815260200182805460018160011615610100020316600290048015610f9c5780601f10610f7157610100808354040283529160200191610f9c565b820191906000526020600020905b815481529060010190602001808311610f7f57829003601f168201915b50505050509250935093509350509193909250565b6000806000805490501415610fc95760009050611076565b8173ffffffffffffffffffffffffffffffffffffffff166000600360008573ffffffffffffffffffffffffffffffffffffffff1673ffffffffffffffffffffffffffffffffffffffff1681526020019081526020016000206002015481548110151561103157fe5b9060005260206000200160009054906101000a900473ffffffffffffffffffffffffffffffffffffffff1673ffffffffffffffffffffffffffffffffffffffff161490505b919050565b600080600061108933610fb1565b151561109457600080fd5b600360003373ffffffffffffffffffffffffffffffffffffffff1673ffffffffffffffffffffffffffffffffffffffff1681526020019081526020016000206000019150600360003373ffffffffffffffffffffffffffffffffffffffff1673ffffffffffffffffffffffffffffffffffffffff168152602001908152602001600020600201549050600282604051808280546001816001161561010002031660029004801561117b5780601f1061115957610100808354040283529182019161117b565b820191906000526020600020905b815481529060010190602001808311611167575b50509150509081526020016040518091039020600080820160006101000a81549073ffffffffffffffffffffffffffffffffffffffff02191690556001820160009055505060408051908101604052803373ffffffffffffffffffffffffffffffffffffffff168152602001828152506002856040518082805190602001908083835b60208310151561122357805182526020820191506020810190506020830392506111fe565b6001836020036101000a038019825116818451168082178552505050505050905001915050908152602001604051809103902060008201518160000160006101000a81548173ffffffffffffffffffffffffffffffffffffffff021916908373ffffffffffffffffffffffffffffffffffffffff1602179055506020820151816001015590505083600360003373ffffffffffffffffffffffffffffffffffffffff1673ffffffffffffffffffffffffffffffffffffffff168152602001908152602001600020600001908051906020019061130092919061141e565b508360018281548110151561131157fe5b90600052602060002001908051906020019061132e92919061141e565b507f8f75ee48a1be9a769d7440ee425633c5e886da7391db2432720df19c0ff7bf15846040518080602001828103825283818151815260200191508051906020019080838360005b83811015611391578082015181840152602081019050611376565b50505050905090810190601f1680156113be5780820380516001836020036101000a031916815260200191505b509250505060405180910390a1600192505050919050565b50805460018160011615610100020316600290046000825580601f106113fc575061141b565b601f01602090049060005260206000209081019061141a919061151e565b5b50565b828054600181600116156101000203166002900490600052602060002090601f016020900481019282601f1061145f57805160ff191683800117855561148d565b8280016001018555821561148d579182015b8281111561148c578251825591602001919060010190611471565b5b50905061149a919061151e565b5090565b828054600181600116156101000203166002900490600052602060002090601f016020900481019282601f106114df57805160ff191683800117855561150d565b8280016001018555821561150d579182015b8281111561150c5782518255916020019190600101906114f1565b5b50905061151a919061151e565b5090565b61154091905b8082111561153c576000816000905550600101611524565b5090565b905600a165627a7a723058204a2ce5aa7ae489d880fb6bd056a7326add7b8870a6be32503cd07a52957556850029",
  "source": "pragma solidity ^0.4.24;\n\ncontract user {\n\n    struct userStruct {\n      string userName;\n      address userAddress;\n      uint index;\n    }\n\n    struct userListStruct {\n      address userAddress;\n      uint index;\n    }\n\n    address[] private userAddresses;              //存储所有地址\n    string[] private userNames;                   //存储所有用户名\n\n    mapping (string => userListStruct) userListMap;          //便于用用户名查找地址\n    mapping (address => userStruct) userMap;                 //便于用地址查找用户名\n\n    event printUserName(string _name);\n\n    function userNameExist(string _userName) public constant returns (bool) {   //检验用户名是否存在\n      if( userNames.length == 0)    return false;\n      return (keccak256(userNames[userListMap[_userName].index]) == keccak256(_userName));\n    }//string 不能直接用==比较，使用hash函数转换比较较为便捷\n\n    function userAddressExist(address _userAddress)public constant returns (bool) {    //检验地址是否存在\n      if(userAddresses.length == 0)    return false;\n      return  (userAddresses[userMap[_userAddress].index] == _userAddress);\n    }\n\n    function createUser (string _userName)public returns (uint) {   //创建用户返回index\n      require(!userAddressExist(msg.sender));\n      require(!userNameExist(_userName));\n\n      userAddresses.push(msg.sender);\n      userNames.push(_userName);\n\n      userMap[msg.sender] = userStruct({\n                                         userName : _userName,\n                                         userAddress : msg.sender,\n                                         index : userAddresses.length - 1\n      });\n      userListMap[_userName] = userListStruct({\n                                            userAddress : msg.sender,\n                                            index : userNames.length - 1\n      });\n\n      printUserName(_userName);                                                     //监听事件，返回用户名\n      return userAddresses.length - 1;\n    }\n\n    function inquireUserA(address _userAddress)public constant returns (string, address, uint) {   //根据地址查找用户信息\n      require(userAddressExist(_userAddress));\n\n      return (\n        userMap[_userAddress].userName,\n        userMap[_userAddress].userAddress,\n        userMap[_userAddress].index\n     );\n    }\n\n    function inquireUserN(string _userName)public constant returns (string, address, uint) {   //根据用户名查找用户信息\n      require(userNameExist(_userName));\n      address _userAddress = userListMap[_userName].userAddress;\n\n      return (\n        userMap[_userAddress].userName,\n        userMap[_userAddress].userAddress,\n        userMap[_userAddress].index\n       );\n}\n\n    function changeUserName(string _name)public returns (bool) { //修改用户姓名\n      require(userAddressExist(msg.sender));\n\n      string initName = userMap[msg.sender].userName;\n      uint initIndex = userMap[msg.sender].index;\n\n      delete userListMap[initName];\n      userListMap[_name] = userListStruct({\n                                            userAddress : msg.sender,\n                                            index : initIndex\n      });\n      userMap[msg.sender].userName = _name;\n\n      userNames[initIndex] = _name;\n      printUserName(_name);\n    \n      return true;\n    }\n\n/*\n                   以及修改其余用户信息的函数\n*/\n\n    function deleteUser()public returns (bool){ //删除用户信息，删除成功返回true\n      delete userListMap[userMap[msg.sender].userName];\n      delete userNames[userMap[msg.sender].index];\n      delete userAddresses[userMap[msg.sender].index];\n      delete userMap[msg.sender];\n\n      return true;\n    \n    }\n\n}\n",
  "sourcePath": "/home/hw/Information-Exchange-DAPP/demo/contracts/user.sol",
  "compiler": {
    "name": "solc",
    "version": "0.4.24+commit.e67f0147.Emscripten.clang"
  },
  "schemaVersion": "2.0.1",
  "updatedAt": "2018-11-22T06:35:55.604Z"
}