{
  "contractName": "user",
  "abi": [
    {
      "constant": true,
      "inputs": [
        {
          "name": "_userName",
          "type": "string"
        }
      ],
      "name": "userNameExist",
      "outputs": [
        {
          "name": "",
          "type": "bool"
        }
      ],
      "payable": false,
      "stateMutability": "view",
      "type": "function"
    },
    {
      "constant": true,
      "inputs": [
        {
          "name": "_userAddress",
          "type": "address"
        }
      ],
      "name": "userAddressExist",
      "outputs": [
        {
          "name": "",
          "type": "bool"
        }
      ],
      "payable": false,
      "stateMutability": "view",
      "type": "function"
    },
    {
      "constant": false,
      "inputs": [
        {
          "name": "_userName",
          "type": "string"
        },
        {
          "name": "_userAddress",
          "type": "address"
        }
      ],
      "name": "createUser",
      "outputs": [
        {
          "name": "",
          "type": "uint256"
        }
      ],
      "payable": false,
      "stateMutability": "nonpayable",
      "type": "function"
    },
    {
      "constant": true,
      "inputs": [
        {
          "name": "_userAddress",
          "type": "address"
        }
      ],
      "name": "inquireUser",
      "outputs": [
        {
          "name": "",
          "type": "string"
        },
        {
          "name": "",
          "type": "address"
        },
        {
          "name": "",
          "type": "uint256"
        }
      ],
      "payable": false,
      "stateMutability": "view",
      "type": "function"
    }
  ],
  "bytecode": "0x608060405234801561001057600080fd5b50610ad3806100206000396000f300608060405260043610610062576000357c0100000000000000000000000000000000000000000000000000000000900463ffffffff1680635381a5641461006757806370a456cc146100e8578063b2fc7fd914610143578063f555ffb414610239575b600080fd5b34801561007357600080fd5b506100ce600480360381019080803590602001908201803590602001908080601f01602080910402602001604051908101604052809392919081815260200183838082843782019150505050505091929192905050506102d6565b604051808215151515815260200191505060405180910390f35b3480156100f457600080fd5b50610129600480360381019080803573ffffffffffffffffffffffffffffffffffffffff169060200190929190505050610451565b604051808215151515815260200191505060405180910390f35b34801561014f57600080fd5b50610184600480360381019080803573ffffffffffffffffffffffffffffffffffffffff16906020019092919050505061051b565b60405180806020018473ffffffffffffffffffffffffffffffffffffffff1673ffffffffffffffffffffffffffffffffffffffff168152602001838152602001828103825285818151815260200191508051906020019080838360005b838110156101fc5780820151818401526020810190506101e1565b50505050905090810190601f1680156102295780820380516001836020036101000a031916815260200191505b5094505050505060405180910390f35b34801561024557600080fd5b506102c0600480360381019080803590602001908201803590602001908080601f0160208091040260200160405190810160405280939291908181526020018383808284378201915050505050509192919290803573ffffffffffffffffffffffffffffffffffffffff1690602001909291905050506106c5565b6040518082815260200191505060405180910390f35b60008060018054905014156102ee576000905061044c565b816040518082805190602001908083835b60208310151561032457805182526020820191506020810190506020830392506102ff565b6001836020036101000a03801982511681845116808217855250505050505090500191505060405180910390206000191660016002846040518082805190602001908083835b60208310151561038f578051825260208201915060208101905060208303925061036a565b6001836020036101000a0380198251168184511680821785525050505050509050019150509081526020016040518091039020600101548154811015156103d257fe5b9060005260206000200160405180828054600181600116156101000203166002900480156104375780601f10610415576101008083540402835291820191610437565b820191906000526020600020905b815481529060010190602001808311610423575b50509150506040518091039020600019161490505b919050565b60008060008054905014156104695760009050610516565b8173ffffffffffffffffffffffffffffffffffffffff166000600360008573ffffffffffffffffffffffffffffffffffffffff1673ffffffffffffffffffffffffffffffffffffffff168152602001908152602001600020600201548154811015156104d157fe5b9060005260206000200160009054906101000a900473ffffffffffffffffffffffffffffffffffffffff1673ffffffffffffffffffffffffffffffffffffffff161490505b919050565b606060008061052984610451565b151561053457600080fd5b600360008573ffffffffffffffffffffffffffffffffffffffff1673ffffffffffffffffffffffffffffffffffffffff168152602001908152602001600020600001600360008673ffffffffffffffffffffffffffffffffffffffff1673ffffffffffffffffffffffffffffffffffffffff16815260200190815260200160002060010160009054906101000a900473ffffffffffffffffffffffffffffffffffffffff16600360008773ffffffffffffffffffffffffffffffffffffffff1673ffffffffffffffffffffffffffffffffffffffff16815260200190815260200160002060020154828054600181600116156101000203166002900480601f0160208091040260200160405190810160405280929190818152602001828054600181600116156101000203166002900480156106b15780601f10610686576101008083540402835291602001916106b1565b820191906000526020600020905b81548152906001019060200180831161069457829003601f168201915b505050505092509250925092509193909250565b60006106d082610451565b1515156106dc57600080fd5b6106e5836102d6565b1515156106f157600080fd5b60008290806001815401808255809150509060018203906000526020600020016000909192909190916101000a81548173ffffffffffffffffffffffffffffffffffffffff021916908373ffffffffffffffffffffffffffffffffffffffff160217905550506001839080600181540180825580915050906001820390600052602060002001600090919290919091509080519060200190610794929190610982565b50506060604051908101604052808481526020018373ffffffffffffffffffffffffffffffffffffffff1681526020016001808054905003815250600360008473ffffffffffffffffffffffffffffffffffffffff1673ffffffffffffffffffffffffffffffffffffffff168152602001908152602001600020600082015181600001908051906020019061082a929190610a02565b5060208201518160010160006101000a81548173ffffffffffffffffffffffffffffffffffffffff021916908373ffffffffffffffffffffffffffffffffffffffff1602179055506040820151816002015590505060408051908101604052808373ffffffffffffffffffffffffffffffffffffffff1681526020016001600080549050038152506002846040518082805190602001908083835b6020831015156108ea57805182526020820191506020810190506020830392506108c5565b6001836020036101000a038019825116818451168082178552505050505050905001915050908152602001604051809103902060008201518160000160006101000a81548173ffffffffffffffffffffffffffffffffffffffff021916908373ffffffffffffffffffffffffffffffffffffffff16021790555060208201518160010155905050600160008054905003905092915050565b828054600181600116156101000203166002900490600052602060002090601f016020900481019282601f106109c357805160ff19168380011785556109f1565b828001600101855582156109f1579182015b828111156109f05782518255916020019190600101906109d5565b5b5090506109fe9190610a82565b5090565b828054600181600116156101000203166002900490600052602060002090601f016020900481019282601f10610a4357805160ff1916838001178555610a71565b82800160010185558215610a71579182015b82811115610a70578251825591602001919060010190610a55565b5b509050610a7e9190610a82565b5090565b610aa491905b80821115610aa0576000816000905550600101610a88565b5090565b905600a165627a7a72305820e3996434bd3c9542fd0e1da013c6b9c3be9f48d3bc1d5df9502c90d1d11600c70029",
  "source": "pragma solidity ^0.4.24;\n\ncontract user {\n\n  struct userStruct {\n    string userName;\n    address userAddress;\n    uint index;\n  }\n\n  struct userListStruct {\n    address userAddress;\n    uint index;\n  }\n\n  address[] private userAddresses;              //存储所有地址\n  string[] private userNames;                   //存储所有用户名\n\n  mapping (string => userListStruct) userListMap;          //便于用用户名查找地址\n  mapping (address => userStruct) userMap;                 //便于用地址查找用户名\n\n  function userNameExist(string _userName) public constant returns (bool) {   //检验用户名是否存在\n    if( userNames.length == 0) return false;\n    return (keccak256(userNames[userListMap[_userName].index]) == keccak256(_userName));\n  }//string 不能直接用==比较，使用hash函数转换比较较为便捷\n\n  function userAddressExist(address _userAddress)public constant returns (bool) {    //检验地址是否存在\n    if(userAddresses.length == 0) return false;\n    return  (userAddresses[userMap[_userAddress].index] == _userAddress);\n  }\n\nfunction createUser (string _userName, address _userAddress)public returns (uint) {   //创建用户返回index\n  require(!userAddressExist(_userAddress));\n  require(!userNameExist(_userName));\n\n  userAddresses.push(_userAddress);\n  userNames.push(_userName);\n\n  userMap[_userAddress] = userStruct({\n                                         userName : _userName,\n                                         userAddress : _userAddress,\n                                         index : userNames.length - 1\n    });\n  userListMap[_userName] = userListStruct({\n                                            userAddress : _userAddress,\n                                            index : userAddresses.length - 1\n    });\n    return userAddresses.length - 1;\n}\n\nfunction inquireUser(address _userAddress)public constant returns (string, address, uint) {   //根据地址查找用户信息\n  require(userAddressExist(_userAddress));\n\n  return (\n    userMap[_userAddress].userName,\n    userMap[_userAddress].userAddress,\n    userMap[_userAddress].index\n    );\n}\n\n}\n",
  "sourcePath": "/home/hw/testfour/demo/contracts/user.sol",
  "compiler": {
    "name": "solc",
    "version": "0.4.24+commit.e67f0147.Emscripten.clang"
  },
  "schemaVersion": "2.0.1",
  "updatedAt": "2018-07-13T06:26:40.207Z"
}